{
  "contractName": "testcontract",
  "abi": [
    {
      "inputs": [],
      "stateMutability": "nonpayable",
      "type": "constructor"
    },
    {
      "anonymous": false,
      "inputs": [
        {
          "indexed": true,
          "internalType": "address",
          "name": "owner",
          "type": "address"
        },
        {
          "indexed": true,
          "internalType": "address",
          "name": "spender",
          "type": "address"
        },
        {
          "indexed": false,
          "internalType": "uint256",
          "name": "value",
          "type": "uint256"
        }
      ],
      "name": "Approval",
      "type": "event"
    },
    {
      "anonymous": false,
      "inputs": [
        {
          "indexed": true,
          "internalType": "address",
          "name": "previousOwner",
          "type": "address"
        },
        {
          "indexed": true,
          "internalType": "address",
          "name": "newOwner",
          "type": "address"
        }
      ],
      "name": "OwnershipTransferred",
      "type": "event"
    },
    {
      "anonymous": false,
      "inputs": [
        {
          "indexed": false,
          "internalType": "uint256",
          "name": "tokensSwapped",
          "type": "uint256"
        },
        {
          "indexed": false,
          "internalType": "uint256",
          "name": "ethReceived",
          "type": "uint256"
        },
        {
          "indexed": false,
          "internalType": "uint256",
          "name": "tokensIntoLiqudity",
          "type": "uint256"
        }
      ],
      "name": "SwapAndLiquify",
      "type": "event"
    },
    {
      "anonymous": false,
      "inputs": [
        {
          "indexed": false,
          "internalType": "bool",
          "name": "enabled",
          "type": "bool"
        }
      ],
      "name": "SwapAndLiquifyEnabledUpdated",
      "type": "event"
    },
    {
      "anonymous": false,
      "inputs": [
        {
          "indexed": true,
          "internalType": "address",
          "name": "from",
          "type": "address"
        },
        {
          "indexed": true,
          "internalType": "address",
          "name": "to",
          "type": "address"
        },
        {
          "indexed": false,
          "internalType": "uint256",
          "name": "value",
          "type": "uint256"
        }
      ],
      "name": "Transfer",
      "type": "event"
    },
    {
      "inputs": [],
      "name": "Address_creator",
      "outputs": [
        {
          "internalType": "address payable",
          "name": "",
          "type": "address"
        }
      ],
      "stateMutability": "view",
      "type": "function"
    },
    {
      "inputs": [],
      "name": "BurnAddress_",
      "outputs": [
        {
          "internalType": "address payable",
          "name": "",
          "type": "address"
        }
      ],
      "stateMutability": "view",
      "type": "function"
    },
    {
      "inputs": [],
      "name": "TaxBuyCoin_",
      "outputs": [
        {
          "internalType": "uint256",
          "name": "",
          "type": "uint256"
        }
      ],
      "stateMutability": "view",
      "type": "function"
    },
    {
      "inputs": [
        {
          "internalType": "address",
          "name": "",
          "type": "address"
        }
      ],
      "name": "_ExcludeFromTax",
      "outputs": [
        {
          "internalType": "bool",
          "name": "",
          "type": "bool"
        }
      ],
      "stateMutability": "view",
      "type": "function"
    },
    {
      "inputs": [],
      "name": "_decimals",
      "outputs": [
        {
          "internalType": "uint8",
          "name": "",
          "type": "uint8"
        }
      ],
      "stateMutability": "view",
      "type": "function"
    },
    {
      "inputs": [],
      "name": "_name",
      "outputs": [
        {
          "internalType": "string",
          "name": "",
          "type": "string"
        }
      ],
      "stateMutability": "view",
      "type": "function"
    },
    {
      "inputs": [],
      "name": "_sellFee",
      "outputs": [
        {
          "internalType": "uint256",
          "name": "",
          "type": "uint256"
        }
      ],
      "stateMutability": "view",
      "type": "function"
    },
    {
      "inputs": [],
      "name": "_symbol",
      "outputs": [
        {
          "internalType": "string",
          "name": "",
          "type": "string"
        }
      ],
      "stateMutability": "view",
      "type": "function"
    },
    {
      "inputs": [],
      "name": "inSwapAndLiquify",
      "outputs": [
        {
          "internalType": "bool",
          "name": "",
          "type": "bool"
        }
      ],
      "stateMutability": "view",
      "type": "function"
    },
    {
      "inputs": [],
      "name": "maxPossibleFee",
      "outputs": [
        {
          "internalType": "uint256",
          "name": "",
          "type": "uint256"
        }
      ],
      "stateMutability": "view",
      "type": "function"
    },
    {
      "inputs": [],
      "name": "maxTxCoin_",
      "outputs": [
        {
          "internalType": "uint256",
          "name": "",
          "type": "uint256"
        }
      ],
      "stateMutability": "view",
      "type": "function"
    },
    {
      "inputs": [],
      "name": "maxWalletCoin_",
      "outputs": [
        {
          "internalType": "uint256",
          "name": "",
          "type": "uint256"
        }
      ],
      "stateMutability": "view",
      "type": "function"
    },
    {
      "inputs": [],
      "name": "noTaxTransfer_",
      "outputs": [
        {
          "internalType": "bool",
          "name": "",
          "type": "bool"
        }
      ],
      "stateMutability": "view",
      "type": "function"
    },
    {
      "inputs": [],
      "name": "owner",
      "outputs": [
        {
          "internalType": "address",
          "name": "",
          "type": "address"
        }
      ],
      "stateMutability": "view",
      "type": "function"
    },
    {
      "inputs": [],
      "name": "renounceOwnership",
      "outputs": [],
      "stateMutability": "nonpayable",
      "type": "function"
    },
    {
      "inputs": [],
      "name": "swapAndLiquifyEnabled",
      "outputs": [
        {
          "internalType": "bool",
          "name": "",
          "type": "bool"
        }
      ],
      "stateMutability": "view",
      "type": "function"
    },
    {
      "inputs": [
        {
          "internalType": "address",
          "name": "newOwner",
          "type": "address"
        }
      ],
      "name": "transferOwnership",
      "outputs": [],
      "stateMutability": "nonpayable",
      "type": "function"
    },
    {
      "inputs": [],
      "name": "uniswapV2Pair",
      "outputs": [
        {
          "internalType": "address",
          "name": "",
          "type": "address"
        }
      ],
      "stateMutability": "view",
      "type": "function"
    },
    {
      "inputs": [],
      "name": "uniswapV2Router",
      "outputs": [
        {
          "internalType": "contract IUniswapV2Router02",
          "name": "",
          "type": "address"
        }
      ],
      "stateMutability": "view",
      "type": "function"
    },
    {
      "stateMutability": "payable",
      "type": "receive"
    },
    {
      "inputs": [],
      "name": "name",
      "outputs": [
        {
          "internalType": "string",
          "name": "",
          "type": "string"
        }
      ],
      "stateMutability": "view",
      "type": "function"
    },
    {
      "inputs": [],
      "name": "symbol",
      "outputs": [
        {
          "internalType": "string",
          "name": "",
          "type": "string"
        }
      ],
      "stateMutability": "view",
      "type": "function"
    },
    {
      "inputs": [],
      "name": "decimals",
      "outputs": [
        {
          "internalType": "uint8",
          "name": "",
          "type": "uint8"
        }
      ],
      "stateMutability": "view",
      "type": "function"
    },
    {
      "inputs": [],
      "name": "totalSupply",
      "outputs": [
        {
          "internalType": "uint256",
          "name": "",
          "type": "uint256"
        }
      ],
      "stateMutability": "view",
      "type": "function"
    },
    {
      "inputs": [
        {
          "internalType": "address",
          "name": "account",
          "type": "address"
        }
      ],
      "name": "balanceOf",
      "outputs": [
        {
          "internalType": "uint256",
          "name": "",
          "type": "uint256"
        }
      ],
      "stateMutability": "view",
      "type": "function"
    },
    {
      "inputs": [
        {
          "internalType": "address",
          "name": "recipient",
          "type": "address"
        },
        {
          "internalType": "uint256",
          "name": "amount",
          "type": "uint256"
        }
      ],
      "name": "transfer",
      "outputs": [
        {
          "internalType": "bool",
          "name": "",
          "type": "bool"
        }
      ],
      "stateMutability": "nonpayable",
      "type": "function"
    },
    {
      "inputs": [
        {
          "internalType": "address",
          "name": "owner",
          "type": "address"
        },
        {
          "internalType": "address",
          "name": "spender",
          "type": "address"
        }
      ],
      "name": "allowance",
      "outputs": [
        {
          "internalType": "uint256",
          "name": "",
          "type": "uint256"
        }
      ],
      "stateMutability": "view",
      "type": "function"
    },
    {
      "inputs": [
        {
          "internalType": "address",
          "name": "spender",
          "type": "address"
        },
        {
          "internalType": "uint256",
          "name": "amount",
          "type": "uint256"
        }
      ],
      "name": "approve",
      "outputs": [
        {
          "internalType": "bool",
          "name": "",
          "type": "bool"
        }
      ],
      "stateMutability": "nonpayable",
      "type": "function"
    },
    {
      "inputs": [
        {
          "internalType": "address",
          "name": "sender",
          "type": "address"
        },
        {
          "internalType": "address",
          "name": "recipient",
          "type": "address"
        },
        {
          "internalType": "uint256",
          "name": "amount",
          "type": "uint256"
        }
      ],
      "name": "transferFrom",
      "outputs": [
        {
          "internalType": "bool",
          "name": "",
          "type": "bool"
        }
      ],
      "stateMutability": "nonpayable",
      "type": "function"
    },
    {
      "inputs": [
        {
          "internalType": "address",
          "name": "spender",
          "type": "address"
        },
        {
          "internalType": "uint256",
          "name": "addedValue",
          "type": "uint256"
        }
      ],
      "name": "increaseAllowance",
      "outputs": [
        {
          "internalType": "bool",
          "name": "",
          "type": "bool"
        }
      ],
      "stateMutability": "nonpayable",
      "type": "function"
    },
    {
      "inputs": [
        {
          "internalType": "address",
          "name": "spender",
          "type": "address"
        },
        {
          "internalType": "uint256",
          "name": "subtractedValue",
          "type": "uint256"
        }
      ],
      "name": "decreaseAllowance",
      "outputs": [
        {
          "internalType": "bool",
          "name": "",
          "type": "bool"
        }
      ],
      "stateMutability": "nonpayable",
      "type": "function"
    },
    {
      "inputs": [
        {
          "internalType": "address",
          "name": "account",
          "type": "address"
        }
      ],
      "name": "excludeTax_",
      "outputs": [],
      "stateMutability": "nonpayable",
      "type": "function"
    },
    {
      "inputs": [
        {
          "internalType": "address",
          "name": "account",
          "type": "address"
        }
      ],
      "name": "includeTax_",
      "outputs": [],
      "stateMutability": "nonpayable",
      "type": "function"
    },
    {
      "inputs": [
        {
          "internalType": "uint256",
          "name": "_taxBuy",
          "type": "uint256"
        },
        {
          "internalType": "uint256",
          "name": "_taxSell",
          "type": "uint256"
        }
      ],
      "name": "_taxSet",
      "outputs": [],
      "stateMutability": "nonpayable",
      "type": "function"
    },
    {
      "inputs": [
        {
          "internalType": "address payable",
          "name": "wallet",
          "type": "address"
        }
      ],
      "name": "WalletUpdate_",
      "outputs": [],
      "stateMutability": "nonpayable",
      "type": "function"
    },
    {
      "inputs": [
        {
          "internalType": "bool",
          "name": "true_or_false",
          "type": "bool"
        }
      ],
      "name": "set_Swap_And_Liquify_Enabled",
      "outputs": [],
      "stateMutability": "nonpayable",
      "type": "function"
    },
    {
      "inputs": [
        {
          "internalType": "uint8",
          "name": "number_of_transactions",
          "type": "uint8"
        }
      ],
      "name": "set_Number_Of_Transactions_Before_Liquify_Trigger",
      "outputs": [],
      "stateMutability": "nonpayable",
      "type": "function"
    },
    {
      "inputs": [
        {
          "internalType": "bool",
          "name": "true_or_false",
          "type": "bool"
        }
      ],
      "name": "noFee_Set",
      "outputs": [],
      "stateMutability": "nonpayable",
      "type": "function"
    },
    {
      "inputs": [
        {
          "internalType": "uint256",
          "name": "maxTxPercent_x100",
          "type": "uint256"
        }
      ],
      "name": "SetMax_buy",
      "outputs": [],
      "stateMutability": "nonpayable",
      "type": "function"
    },
    {
      "inputs": [
        {
          "internalType": "uint256",
          "name": "maxWallPercent_x100",
          "type": "uint256"
        }
      ],
      "name": "setMax_Wallet",
      "outputs": [],
      "stateMutability": "nonpayable",
      "type": "function"
    },
    {
      "inputs": [
        {
          "internalType": "uint256",
          "name": "percent_To_Process",
          "type": "uint256"
        }
      ],
      "name": "processTokens_",
      "outputs": [],
      "stateMutability": "nonpayable",
      "type": "function"
    },
    {
      "inputs": [
        {
          "internalType": "address",
          "name": "newRouter",
          "type": "address"
        }
      ],
      "name": "set_New_Router_and_Make_Pair",
      "outputs": [],
      "stateMutability": "nonpayable",
      "type": "function"
    },
    {
      "inputs": [
        {
          "internalType": "address",
          "name": "newRouter",
          "type": "address"
        }
      ],
      "name": "set_New_Router_Address",
      "outputs": [],
      "stateMutability": "nonpayable",
      "type": "function"
    },
    {
      "inputs": [
        {
          "internalType": "address",
          "name": "newPair",
          "type": "address"
        }
      ],
      "name": "set_New_Pair_Address",
      "outputs": [],
      "stateMutability": "nonpayable",
      "type": "function"
    }
  ],
  "bytecode": "0x60806040526040518060400160405280600c81526020017f54657374436f6e74726163740000000000000000000000000000000000000000815250600490816200004a9190620009d7565b506040518060400160405280600381526020017f544343000000000000000000000000000000000000000000000000000000000081525060059081620000919190620009d7565b50601260065f6101000a81548160ff021916908360ff1602179055506aa56fa5b99019a5c80000006007555f60095f6101000a81548160ff021916908360ff1602179055506003600960016101000a81548160ff021916908360ff1602179055506046600a55601e600b55600f600c55600f600d55600b54600e55600c54600f55600d546010556200014560646200013660016007546200071e60201b90919060201c565b6200073560201b90919060201c565b6011556011546012556200017b60646200016c60016007546200071e60201b90919060201c565b6200073560201b90919060201c565b60135560135460145573b5af6ec45aafddecd0cca7c1fab72919acbd234160155f6101000a81548173ffffffffffffffffffffffffffffffffffffffff021916908373ffffffffffffffffffffffffffffffffffffffff16021790555061dead60165f6101000a81548173ffffffffffffffffffffffffffffffffffffffff021916908373ffffffffffffffffffffffffffffffffffffffff1602179055506001601860156101000a81548160ff0219169083151502179055505f601860166101000a81548160ff0219169083151502179055503480156200025b575f80fd5b5073b5af6ec45aafddecd0cca7c1fab72919acbd23415f806101000a81548173ffffffffffffffffffffffffffffffffffffffff021916908373ffffffffffffffffffffffffffffffffffffffff1602179055505f8054906101000a900473ffffffffffffffffffffffffffffffffffffffff1673ffffffffffffffffffffffffffffffffffffffff165f73ffffffffffffffffffffffffffffffffffffffff167f8be0079c531659141344cd1fd0a4f28419497f9722a3daafe3b4186f6b6457e060405160405180910390a360075460015f6200033e6200074c60201b60201c565b73ffffffffffffffffffffffffffffffffffffffff1673ffffffffffffffffffffffffffffffffffffffff1681526020019081526020015f20819055505f7320dd97c68afb5d44a28ab41081035cd500ac3acc90508073ffffffffffffffffffffffffffffffffffffffff1663c45a01556040518163ffffffff1660e01b8152600401602060405180830381865afa158015620003dd573d5f803e3d5ffd5b505050506040513d601f19601f8201168201806040525081019062000403919062000b20565b73ffffffffffffffffffffffffffffffffffffffff1663c9c65396308373ffffffffffffffffffffffffffffffffffffffff1663ad5c46486040518163ffffffff1660e01b8152600401602060405180830381865afa15801562000469573d5f803e3d5ffd5b505050506040513d601f19601f820116820180604052508101906200048f919062000b20565b6040518363ffffffff1660e01b8152600401620004ae92919062000b61565b6020604051808303815f875af1158015620004cb573d5f803e3d5ffd5b505050506040513d601f19601f82011682018060405250810190620004f1919062000b20565b60185f6101000a81548173ffffffffffffffffffffffffffffffffffffffff021916908373ffffffffffffffffffffffffffffffffffffffff1602179055508060175f6101000a81548173ffffffffffffffffffffffffffffffffffffffff021916908373ffffffffffffffffffffffffffffffffffffffff160217905550600160035f620005856200074c60201b60201c565b73ffffffffffffffffffffffffffffffffffffffff1673ffffffffffffffffffffffffffffffffffffffff1681526020019081526020015f205f6101000a81548160ff021916908315150217905550600160035f3073ffffffffffffffffffffffffffffffffffffffff1673ffffffffffffffffffffffffffffffffffffffff1681526020019081526020015f205f6101000a81548160ff021916908315150217905550600160035f60155f9054906101000a900473ffffffffffffffffffffffffffffffffffffffff1673ffffffffffffffffffffffffffffffffffffffff1673ffffffffffffffffffffffffffffffffffffffff1681526020019081526020015f205f6101000a81548160ff021916908315150217905550620006af6200074c60201b60201c565b73ffffffffffffffffffffffffffffffffffffffff165f73ffffffffffffffffffffffffffffffffffffffff167fddf252ad1be2c89b69c2b068fc378daa952ba7f163c4a11628f55a4df523b3ef6007546040516200070f919062000b9d565b60405180910390a35062000c93565b5f81836200072d919062000be5565b905092915050565b5f818362000744919062000c5c565b905092915050565b5f805f9054906101000a900473ffffffffffffffffffffffffffffffffffffffff16905090565b5f81519050919050565b7f4e487b71000000000000000000000000000000000000000000000000000000005f52604160045260245ffd5b7f4e487b71000000000000000000000000000000000000000000000000000000005f52602260045260245ffd5b5f6002820490506001821680620007ef57607f821691505b602082108103620008055762000804620007aa565b5b50919050565b5f819050815f5260205f209050919050565b5f6020601f8301049050919050565b5f82821b905092915050565b5f60088302620008697fffffffffffffffffffffffffffffffffffffffffffffffffffffffffffffffff826200082c565b6200087586836200082c565b95508019841693508086168417925050509392505050565b5f819050919050565b5f819050919050565b5f620008bf620008b9620008b3846200088d565b62000896565b6200088d565b9050919050565b5f819050919050565b620008da836200089f565b620008f2620008e982620008c6565b84845462000838565b825550505050565b5f90565b62000908620008fa565b62000915818484620008cf565b505050565b5b818110156200093c57620009305f82620008fe565b6001810190506200091b565b5050565b601f8211156200098b5762000955816200080b565b62000960846200081d565b8101602085101562000970578190505b620009886200097f856200081d565b8301826200091a565b50505b505050565b5f82821c905092915050565b5f620009ad5f198460080262000990565b1980831691505092915050565b5f620009c783836200099c565b9150826002028217905092915050565b620009e28262000773565b67ffffffffffffffff811115620009fe57620009fd6200077d565b5b62000a0a8254620007d7565b62000a1782828562000940565b5f60209050601f83116001811462000a4d575f841562000a38578287015190505b62000a448582620009ba565b86555062000ab3565b601f19841662000a5d866200080b565b5f5b8281101562000a865784890151825560018201915060208501945060208101905062000a5f565b8683101562000aa6578489015162000aa2601f8916826200099c565b8355505b6001600288020188555050505b505050505050565b5f80fd5b5f73ffffffffffffffffffffffffffffffffffffffff82169050919050565b5f62000aea8262000abf565b9050919050565b62000afc8162000ade565b811462000b07575f80fd5b50565b5f8151905062000b1a8162000af1565b92915050565b5f6020828403121562000b385762000b3762000abb565b5b5f62000b478482850162000b0a565b91505092915050565b62000b5b8162000ade565b82525050565b5f60408201905062000b765f83018562000b50565b62000b85602083018462000b50565b9392505050565b62000b97816200088d565b82525050565b5f60208201905062000bb25f83018462000b8c565b92915050565b7f4e487b71000000000000000000000000000000000000000000000000000000005f52601160045260245ffd5b5f62000bf1826200088d565b915062000bfe836200088d565b925082820262000c0e816200088d565b9150828204841483151762000c285762000c2762000bb8565b5b5092915050565b7f4e487b71000000000000000000000000000000000000000000000000000000005f52601260045260245ffd5b5f62000c68826200088d565b915062000c75836200088d565b92508262000c885762000c8762000c2f565b5b828204905092915050565b613a918062000ca15f395ff3fe60806040526004361061025f575f3560e01c80636e9f9fb711610143578063b9db2ce5116100b5578063d73b592b11610079578063d73b592b146108d2578063d785d5be146108fc578063dd62ed3e14610924578063ec717a9e14610960578063f2fde38b14610988578063f7739b5f146109b057610266565b8063b9db2ce514610804578063bb4069f01461082e578063c072494c14610856578063c7c39d891461087e578063d28d8852146108a857610266565b806395d89b411161010757806395d89b41146106e857806396a3fd7d14610712578063983995ae1461073a578063a457c2d714610762578063a9059cbb1461079e578063b09f1266146107da57610266565b80636e9f9fb71461061a57806370a0823114610644578063715018a6146106805780637caefa89146106965780638da5cb5b146106be57610266565b806332424aa3116101dc57806349bd5a5e116101a057806349bd5a5e146105205780634a74bb021461054a5780634d2257e51461057457806355bfff4b1461059c578063590f897e146105c65780635d51928b146105f057610266565b806332424aa31461042e57806332b1579e1461045857806336b1a1bc1461048057806338fc5b80146104a857806339509351146104e457610266565b806318160ddd1161022357806318160ddd1461034c57806321de8de614610376578063220f66961461039e57806323b872dd146103c8578063313ce5671461040457610266565b806306fdde031461026a578063095ea7b3146102945780631277ce85146102d05780631282a0a0146102fa5780631694505e1461032257610266565b3661026657005b5f80fd5b348015610275575f80fd5b5061027e6109d8565b60405161028b9190612e6c565b60405180910390f35b34801561029f575f80fd5b506102ba60048036038101906102b59190612f1d565b610a68565b6040516102c79190612f75565b60405180910390f35b3480156102db575f80fd5b506102e4610a85565b6040516102f19190612f9d565b60405180910390f35b348015610305575f80fd5b50610320600480360381019061031b9190612fb6565b610a8b565b005b34801561032d575f80fd5b50610336610ce1565b604051610343919061303c565b60405180910390f35b348015610357575f80fd5b50610360610d06565b60405161036d9190612f9d565b60405180910390f35b348015610381575f80fd5b5061039c60048036038101906103979190613055565b610d0f565b005b3480156103a9575f80fd5b506103b2610daf565b6040516103bf9190612f75565b60405180910390f35b3480156103d3575f80fd5b506103ee60048036038101906103e99190613080565b610dc2565b6040516103fb9190612f75565b60405180910390f35b34801561040f575f80fd5b50610418610e96565b60405161042591906130eb565b60405180910390f35b348015610439575f80fd5b50610442610eab565b60405161044f91906130eb565b60405180910390f35b348015610463575f80fd5b5061047e60048036038101906104799190613055565b610ebd565b005b34801561048b575f80fd5b506104a660048036038101906104a19190612fb6565b610f5d565b005b3480156104b3575f80fd5b506104ce60048036038101906104c99190612fb6565b611021565b6040516104db9190612f75565b60405180910390f35b3480156104ef575f80fd5b5061050a60048036038101906105059190612f1d565b61103e565b6040516105179190612f75565b60405180910390f35b34801561052b575f80fd5b506105346110ec565b6040516105419190613113565b60405180910390f35b348015610555575f80fd5b5061055e611111565b60405161056b9190612f75565b60405180910390f35b34801561057f575f80fd5b5061059a60048036038101906105959190613167565b611124565b005b3480156105a7575f80fd5b506105b0611259565b6040516105bd91906131a1565b60405180910390f35b3480156105d1575f80fd5b506105da61127e565b6040516105e79190612f9d565b60405180910390f35b3480156105fb575f80fd5b50610604611284565b6040516106119190612f9d565b60405180910390f35b348015610625575f80fd5b5061062e61128a565b60405161063b91906131a1565b60405180910390f35b34801561064f575f80fd5b5061066a60048036038101906106659190612fb6565b6112af565b6040516106779190612f9d565b60405180910390f35b34801561068b575f80fd5b506106946112f5565b005b3480156106a1575f80fd5b506106bc60048036038101906106b791906131e4565b61142b565b005b3480156106c9575f80fd5b506106d26114c5565b6040516106df9190613113565b60405180910390f35b3480156106f3575f80fd5b506106fc6114ec565b6040516107099190612e6c565b60405180910390f35b34801561071d575f80fd5b506107386004803603810190610733919061320f565b61157c565b005b348015610745575f80fd5b50610760600480360381019061075b9190613055565b61165a565b005b34801561076d575f80fd5b5061078860048036038101906107839190612f1d565b61175b565b6040516107959190612f75565b60405180910390f35b3480156107a9575f80fd5b506107c460048036038101906107bf9190612f1d565b611823565b6040516107d19190612f75565b60405180910390f35b3480156107e5575f80fd5b506107ee611840565b6040516107fb9190612e6c565b60405180910390f35b34801561080f575f80fd5b506108186118cc565b6040516108259190612f75565b60405180910390f35b348015610839575f80fd5b50610854600480360381019061084f9190613277565b6118df565b005b348015610861575f80fd5b5061087c60048036038101906108779190612fb6565b611978565b005b348015610889575f80fd5b50610892611a4b565b60405161089f9190612f9d565b60405180910390f35b3480156108b3575f80fd5b506108bc611a51565b6040516108c99190612e6c565b60405180910390f35b3480156108dd575f80fd5b506108e6611add565b6040516108f39190612f9d565b60405180910390f35b348015610907575f80fd5b50610922600480360381019061091d9190612fb6565b611ae3565b005b34801561092f575f80fd5b5061094a600480360381019061094591906132a2565b611ba2565b6040516109579190612f9d565b60405180910390f35b34801561096b575f80fd5b5061098660048036038101906109819190612fb6565b611c24565b005b348015610993575f80fd5b506109ae60048036038101906109a99190612fb6565b611cf8565b005b3480156109bb575f80fd5b506109d660048036038101906109d19190613277565b611e9d565b005b6060600480546109e79061330d565b80601f0160208091040260200160405190810160405280929190818152602001828054610a139061330d565b8015610a5e5780601f10610a3557610100808354040283529160200191610a5e565b820191905f5260205f20905b815481529060010190602001808311610a4157829003601f168201915b5050505050905090565b5f610a7b610a74611f6d565b8484611f74565b6001905092915050565b600a5481565b610a93611f6d565b73ffffffffffffffffffffffffffffffffffffffff16610ab16114c5565b73ffffffffffffffffffffffffffffffffffffffff1614610b07576040517f08c379a0000000000000000000000000000000000000000000000000000000008152600401610afe90613387565b60405180910390fd5b5f8190508073ffffffffffffffffffffffffffffffffffffffff1663c45a01556040518163ffffffff1660e01b8152600401602060405180830381865afa158015610b54573d5f803e3d5ffd5b505050506040513d601f19601f82011682018060405250810190610b7891906133b9565b73ffffffffffffffffffffffffffffffffffffffff1663c9c65396308373ffffffffffffffffffffffffffffffffffffffff1663ad5c46486040518163ffffffff1660e01b8152600401602060405180830381865afa158015610bdd573d5f803e3d5ffd5b505050506040513d601f19601f82011682018060405250810190610c0191906133b9565b6040518363ffffffff1660e01b8152600401610c1e9291906133e4565b6020604051808303815f875af1158015610c3a573d5f803e3d5ffd5b505050506040513d601f19601f82011682018060405250810190610c5e91906133b9565b60185f6101000a81548173ffffffffffffffffffffffffffffffffffffffff021916908373ffffffffffffffffffffffffffffffffffffffff1602179055508060175f6101000a81548173ffffffffffffffffffffffffffffffffffffffff021916908373ffffffffffffffffffffffffffffffffffffffff1602179055505050565b60175f9054906101000a900473ffffffffffffffffffffffffffffffffffffffff1681565b5f600754905090565b610d17611f6d565b73ffffffffffffffffffffffffffffffffffffffff16610d356114c5565b73ffffffffffffffffffffffffffffffffffffffff1614610d8b576040517f08c379a0000000000000000000000000000000000000000000000000000000008152600401610d8290613387565b60405180910390fd5b61271081600754610d9c9190613438565b610da691906134a6565b60138190555050565b601860149054906101000a900460ff1681565b5f610dce848484612102565b610e8b84610dda611f6d565b610e8685604051806060016040528060288152602001613a0f6028913960025f8b73ffffffffffffffffffffffffffffffffffffffff1673ffffffffffffffffffffffffffffffffffffffff1681526020019081526020015f205f610e3d611f6d565b73ffffffffffffffffffffffffffffffffffffffff1673ffffffffffffffffffffffffffffffffffffffff1681526020019081526020015f20546127299092919063ffffffff16565b611f74565b600190509392505050565b5f60065f9054906101000a900460ff16905090565b60065f9054906101000a900460ff1681565b610ec5611f6d565b73ffffffffffffffffffffffffffffffffffffffff16610ee36114c5565b73ffffffffffffffffffffffffffffffffffffffff1614610f39576040517f08c379a0000000000000000000000000000000000000000000000000000000008152600401610f3090613387565b60405180910390fd5b61271081600754610f4a9190613438565b610f5491906134a6565b60118190555050565b610f65611f6d565b73ffffffffffffffffffffffffffffffffffffffff16610f836114c5565b73ffffffffffffffffffffffffffffffffffffffff1614610fd9576040517f08c379a0000000000000000000000000000000000000000000000000000000008152600401610fd090613387565b60405180910390fd5b5f8190508060175f6101000a81548173ffffffffffffffffffffffffffffffffffffffff021916908373ffffffffffffffffffffffffffffffffffffffff1602179055505050565b6003602052805f5260405f205f915054906101000a900460ff1681565b5f6110e261104a611f6d565b846110dd8560025f61105a611f6d565b73ffffffffffffffffffffffffffffffffffffffff1673ffffffffffffffffffffffffffffffffffffffff1681526020019081526020015f205f8973ffffffffffffffffffffffffffffffffffffffff1673ffffffffffffffffffffffffffffffffffffffff1681526020019081526020015f205461277d90919063ffffffff16565b611f74565b6001905092915050565b60185f9054906101000a900473ffffffffffffffffffffffffffffffffffffffff1681565b601860159054906101000a900460ff1681565b61112c611f6d565b73ffffffffffffffffffffffffffffffffffffffff1661114a6114c5565b73ffffffffffffffffffffffffffffffffffffffff16146111a0576040517f08c379a000000000000000000000000000000000000000000000000000000000815260040161119790613387565b60405180910390fd5b8060155f6101000a81548173ffffffffffffffffffffffffffffffffffffffff021916908373ffffffffffffffffffffffffffffffffffffffff160217905550600160035f60155f9054906101000a900473ffffffffffffffffffffffffffffffffffffffff1673ffffffffffffffffffffffffffffffffffffffff1673ffffffffffffffffffffffffffffffffffffffff1681526020019081526020015f205f6101000a81548160ff02191690831515021790555050565b60155f9054906101000a900473ffffffffffffffffffffffffffffffffffffffff1681565b600d5481565b60115481565b60165f9054906101000a900473ffffffffffffffffffffffffffffffffffffffff1681565b5f60015f8373ffffffffffffffffffffffffffffffffffffffff1673ffffffffffffffffffffffffffffffffffffffff1681526020019081526020015f20549050919050565b6112fd611f6d565b73ffffffffffffffffffffffffffffffffffffffff1661131b6114c5565b73ffffffffffffffffffffffffffffffffffffffff1614611371576040517f08c379a000000000000000000000000000000000000000000000000000000000815260040161136890613387565b60405180910390fd5b5f73ffffffffffffffffffffffffffffffffffffffff165f8054906101000a900473ffffffffffffffffffffffffffffffffffffffff1673ffffffffffffffffffffffffffffffffffffffff167f8be0079c531659141344cd1fd0a4f28419497f9722a3daafe3b4186f6b6457e060405160405180910390a35f805f6101000a81548173ffffffffffffffffffffffffffffffffffffffff021916908373ffffffffffffffffffffffffffffffffffffffff160217905550565b611433611f6d565b73ffffffffffffffffffffffffffffffffffffffff166114516114c5565b73ffffffffffffffffffffffffffffffffffffffff16146114a7576040517f08c379a000000000000000000000000000000000000000000000000000000000815260040161149e90613387565b60405180910390fd5b80600960016101000a81548160ff021916908360ff16021790555050565b5f805f9054906101000a900473ffffffffffffffffffffffffffffffffffffffff16905090565b6060600580546114fb9061330d565b80601f01602080910402602001604051908101604052809291908181526020018280546115279061330d565b80156115725780601f1061154957610100808354040283529160200191611572565b820191905f5260205f20905b81548152906001019060200180831161155557829003601f168201915b5050505050905090565b611584611f6d565b73ffffffffffffffffffffffffffffffffffffffff166115a26114c5565b73ffffffffffffffffffffffffffffffffffffffff16146115f8576040517f08c379a00000000000000000000000000000000000000000000000000000000081526004016115ef90613387565b60405180910390fd5b600a54818361160791906134d6565b1115611648576040517f08c379a000000000000000000000000000000000000000000000000000000000815260040161163f90613553565b60405180910390fd5b80600d8190555081600c819055505050565b611662611f6d565b73ffffffffffffffffffffffffffffffffffffffff166116806114c5565b73ffffffffffffffffffffffffffffffffffffffff16146116d6576040517f08c379a00000000000000000000000000000000000000000000000000000000081526004016116cd90613387565b60405180910390fd5b601860149054906101000a900460ff1615611726576040517f08c379a000000000000000000000000000000000000000000000000000000000815260040161171d906135bb565b60405180910390fd5b5f611730306112af565b90505f606483836117419190613438565b61174b91906134a6565b905061175681612792565b505050565b5f611819611767611f6d565b8461181485604051806060016040528060258152602001613a376025913960025f611790611f6d565b73ffffffffffffffffffffffffffffffffffffffff1673ffffffffffffffffffffffffffffffffffffffff1681526020019081526020015f205f8a73ffffffffffffffffffffffffffffffffffffffff1673ffffffffffffffffffffffffffffffffffffffff1681526020019081526020015f20546127299092919063ffffffff16565b611f74565b6001905092915050565b5f61183661182f611f6d565b8484612102565b6001905092915050565b6005805461184d9061330d565b80601f01602080910402602001604051908101604052809291908181526020018280546118799061330d565b80156118c45780601f1061189b576101008083540402835291602001916118c4565b820191905f5260205f20905b8154815290600101906020018083116118a757829003601f168201915b505050505081565b601860169054906101000a900460ff1681565b6118e7611f6d565b73ffffffffffffffffffffffffffffffffffffffff166119056114c5565b73ffffffffffffffffffffffffffffffffffffffff161461195b576040517f08c379a000000000000000000000000000000000000000000000000000000000815260040161195290613387565b60405180910390fd5b80601860166101000a81548160ff02191690831515021790555050565b611980611f6d565b73ffffffffffffffffffffffffffffffffffffffff1661199e6114c5565b73ffffffffffffffffffffffffffffffffffffffff16146119f4576040517f08c379a00000000000000000000000000000000000000000000000000000000081526004016119eb90613387565b60405180910390fd5b5f60035f8373ffffffffffffffffffffffffffffffffffffffff1673ffffffffffffffffffffffffffffffffffffffff1681526020019081526020015f205f6101000a81548160ff02191690831515021790555050565b600c5481565b60048054611a5e9061330d565b80601f0160208091040260200160405190810160405280929190818152602001828054611a8a9061330d565b8015611ad55780601f10611aac57610100808354040283529160200191611ad5565b820191905f5260205f20905b815481529060010190602001808311611ab857829003601f168201915b505050505081565b60135481565b611aeb611f6d565b73ffffffffffffffffffffffffffffffffffffffff16611b096114c5565b73ffffffffffffffffffffffffffffffffffffffff1614611b5f576040517f08c379a0000000000000000000000000000000000000000000000000000000008152600401611b5690613387565b60405180910390fd5b8060185f6101000a81548173ffffffffffffffffffffffffffffffffffffffff021916908373ffffffffffffffffffffffffffffffffffffffff16021790555050565b5f60025f8473ffffffffffffffffffffffffffffffffffffffff1673ffffffffffffffffffffffffffffffffffffffff1681526020019081526020015f205f8373ffffffffffffffffffffffffffffffffffffffff1673ffffffffffffffffffffffffffffffffffffffff1681526020019081526020015f2054905092915050565b611c2c611f6d565b73ffffffffffffffffffffffffffffffffffffffff16611c4a6114c5565b73ffffffffffffffffffffffffffffffffffffffff1614611ca0576040517f08c379a0000000000000000000000000000000000000000000000000000000008152600401611c9790613387565b60405180910390fd5b600160035f8373ffffffffffffffffffffffffffffffffffffffff1673ffffffffffffffffffffffffffffffffffffffff1681526020019081526020015f205f6101000a81548160ff02191690831515021790555050565b611d00611f6d565b73ffffffffffffffffffffffffffffffffffffffff16611d1e6114c5565b73ffffffffffffffffffffffffffffffffffffffff1614611d74576040517f08c379a0000000000000000000000000000000000000000000000000000000008152600401611d6b90613387565b60405180910390fd5b5f73ffffffffffffffffffffffffffffffffffffffff168173ffffffffffffffffffffffffffffffffffffffff1603611de2576040517f08c379a0000000000000000000000000000000000000000000000000000000008152600401611dd990613649565b60405180910390fd5b8073ffffffffffffffffffffffffffffffffffffffff165f8054906101000a900473ffffffffffffffffffffffffffffffffffffffff1673ffffffffffffffffffffffffffffffffffffffff167f8be0079c531659141344cd1fd0a4f28419497f9722a3daafe3b4186f6b6457e060405160405180910390a3805f806101000a81548173ffffffffffffffffffffffffffffffffffffffff021916908373ffffffffffffffffffffffffffffffffffffffff16021790555050565b611ea5611f6d565b73ffffffffffffffffffffffffffffffffffffffff16611ec36114c5565b73ffffffffffffffffffffffffffffffffffffffff1614611f19576040517f08c379a0000000000000000000000000000000000000000000000000000000008152600401611f1090613387565b60405180910390fd5b80601860156101000a81548160ff0219169083151502179055507f53726dfcaf90650aa7eb35524f4d3220f07413c8d6cb404cc8c18bf5591bc15981604051611f629190612f75565b60405180910390a150565b5f33905090565b5f73ffffffffffffffffffffffffffffffffffffffff168373ffffffffffffffffffffffffffffffffffffffff1614158015611fdc57505f73ffffffffffffffffffffffffffffffffffffffff168273ffffffffffffffffffffffffffffffffffffffff1614155b61201b576040517f08c379a0000000000000000000000000000000000000000000000000000000008152600401612012906136b1565b60405180910390fd5b8060025f8573ffffffffffffffffffffffffffffffffffffffff1673ffffffffffffffffffffffffffffffffffffffff1681526020019081526020015f205f8473ffffffffffffffffffffffffffffffffffffffff1673ffffffffffffffffffffffffffffffffffffffff1681526020019081526020015f20819055508173ffffffffffffffffffffffffffffffffffffffff168373ffffffffffffffffffffffffffffffffffffffff167f8c5be1e5ebec7d5bd14f71427d1e84f3dd0314c0f7b2291e5b200ac8c7c3b925836040516120f59190612f9d565b60405180910390a3505050565b61210a6114c5565b73ffffffffffffffffffffffffffffffffffffffff168273ffffffffffffffffffffffffffffffffffffffff1614158015612192575060155f9054906101000a900473ffffffffffffffffffffffffffffffffffffffff1673ffffffffffffffffffffffffffffffffffffffff168273ffffffffffffffffffffffffffffffffffffffff1614155b80156121ca57503073ffffffffffffffffffffffffffffffffffffffff168273ffffffffffffffffffffffffffffffffffffffff1614155b8015612223575060185f9054906101000a900473ffffffffffffffffffffffffffffffffffffffff1673ffffffffffffffffffffffffffffffffffffffff168273ffffffffffffffffffffffffffffffffffffffff1614155b801561227c575060165f9054906101000a900473ffffffffffffffffffffffffffffffffffffffff1673ffffffffffffffffffffffffffffffffffffffff168273ffffffffffffffffffffffffffffffffffffffff1614155b80156122bb575061228b6114c5565b73ffffffffffffffffffffffffffffffffffffffff168373ffffffffffffffffffffffffffffffffffffffff1614155b1561231e575f6122ca836112af565b905060115482826122db91906134d6565b111561231c576040517f08c379a000000000000000000000000000000000000000000000000000000000815260040161231390613765565b60405180910390fd5b505b6123266114c5565b73ffffffffffffffffffffffffffffffffffffffff168373ffffffffffffffffffffffffffffffffffffffff161415801561239457506123646114c5565b73ffffffffffffffffffffffffffffffffffffffff168273ffffffffffffffffffffffffffffffffffffffff1614155b156123df576013548111156123de576040517f08c379a00000000000000000000000000000000000000000000000000000000081526004016123d5906137f3565b60405180910390fd5b5b600960019054906101000a900460ff1660ff1660095f9054906101000a900460ff1660ff161015801561241f5750601860149054906101000a900460ff16155b8015612478575060185f9054906101000a900473ffffffffffffffffffffffffffffffffffffffff1673ffffffffffffffffffffffffffffffffffffffff168373ffffffffffffffffffffffffffffffffffffffff1614155b80156124905750601860159054906101000a900460ff165b156124df575f60095f6101000a81548160ff021916908360ff1602179055505f6124b9306112af565b90506013548111156124cb5760135490505b5f8111156124dd576124dc81612792565b5b505b5f6001905060035f8573ffffffffffffffffffffffffffffffffffffffff1673ffffffffffffffffffffffffffffffffffffffff1681526020019081526020015f205f9054906101000a900460ff168061257f575060035f8473ffffffffffffffffffffffffffffffffffffffff1673ffffffffffffffffffffffffffffffffffffffff1681526020019081526020015f205f9054906101000a900460ff165b806126485750601860169054906101000a900460ff1680156125ee575060185f9054906101000a900473ffffffffffffffffffffffffffffffffffffffff1673ffffffffffffffffffffffffffffffffffffffff168473ffffffffffffffffffffffffffffffffffffffff1614155b8015612647575060185f9054906101000a900473ffffffffffffffffffffffffffffffffffffffff1673ffffffffffffffffffffffffffffffffffffffff168373ffffffffffffffffffffffffffffffffffffffff1614155b5b15612655575f9050612717565b60185f9054906101000a900473ffffffffffffffffffffffffffffffffffffffff1673ffffffffffffffffffffffffffffffffffffffff168473ffffffffffffffffffffffffffffffffffffffff16036126b757600c54600b81905550612716565b60185f9054906101000a900473ffffffffffffffffffffffffffffffffffffffff1673ffffffffffffffffffffffffffffffffffffffff168373ffffffffffffffffffffffffffffffffffffffff160361271557600d54600b819055505b5b5b61272384848484612803565b50505050565b5f838311158290612770576040517f08c379a00000000000000000000000000000000000000000000000000000000081526004016127679190612e6c565b60405180910390fd5b5082840390509392505050565b5f818361278a91906134d6565b905092915050565b6001601860146101000a81548160ff0219169083151502179055506127b68161286c565b5f4790506127e560155f9054906101000a900473ffffffffffffffffffffffffffffffffffffffff1682612aa2565b505f601860146101000a81548160ff02191690831515021790555050565b8061281557612810612aea565b61284d565b60095f81819054906101000a900460ff168092919061283390613811565b91906101000a81548160ff021916908360ff160217905550505b612858848484612b40565b8061286657612865612d6e565b5b50505050565b5f600267ffffffffffffffff81111561288857612887613839565b5b6040519080825280602002602001820160405280156128b65781602001602082028036833780820191505090505b50905030815f815181106128cd576128cc613866565b5b602002602001019073ffffffffffffffffffffffffffffffffffffffff16908173ffffffffffffffffffffffffffffffffffffffff168152505060175f9054906101000a900473ffffffffffffffffffffffffffffffffffffffff1673ffffffffffffffffffffffffffffffffffffffff1663ad5c46486040518163ffffffff1660e01b8152600401602060405180830381865afa158015612971573d5f803e3d5ffd5b505050506040513d601f19601f8201168201806040525081019061299591906133b9565b816001815181106129a9576129a8613866565b5b602002602001019073ffffffffffffffffffffffffffffffffffffffff16908173ffffffffffffffffffffffffffffffffffffffff1681525050612a0f3060175f9054906101000a900473ffffffffffffffffffffffffffffffffffffffff1684611f74565b60175f9054906101000a900473ffffffffffffffffffffffffffffffffffffffff1673ffffffffffffffffffffffffffffffffffffffff1663791ac947835f8430426040518663ffffffff1660e01b8152600401612a71959493929190613983565b5f604051808303815f87803b158015612a88575f80fd5b505af1158015612a9a573d5f803e3d5ffd5b505050505050565b8173ffffffffffffffffffffffffffffffffffffffff166108fc8290811502906040515f60405180830381858888f19350505050158015612ae5573d5f803e3d5ffd5b505050565b5f600b54148015612afc57505f600c54145b8015612b0957505f600d54145b612b3e57600c54600f81905550600d54601081905550600b54600e819055505f600c819055505f600d819055505f600b819055505b565b5f80612b4b83612d8b565b91509150612b9f8360015f8873ffffffffffffffffffffffffffffffffffffffff1673ffffffffffffffffffffffffffffffffffffffff1681526020019081526020015f2054612dcd90919063ffffffff16565b60015f8773ffffffffffffffffffffffffffffffffffffffff1673ffffffffffffffffffffffffffffffffffffffff1681526020019081526020015f2081905550612c308260015f8773ffffffffffffffffffffffffffffffffffffffff1673ffffffffffffffffffffffffffffffffffffffff1681526020019081526020015f205461277d90919063ffffffff16565b60015f8673ffffffffffffffffffffffffffffffffffffffff1673ffffffffffffffffffffffffffffffffffffffff1681526020019081526020015f2081905550612cc18160015f3073ffffffffffffffffffffffffffffffffffffffff1673ffffffffffffffffffffffffffffffffffffffff1681526020019081526020015f205461277d90919063ffffffff16565b60015f3073ffffffffffffffffffffffffffffffffffffffff1673ffffffffffffffffffffffffffffffffffffffff1681526020019081526020015f20819055508373ffffffffffffffffffffffffffffffffffffffff168573ffffffffffffffffffffffffffffffffffffffff167fddf252ad1be2c89b69c2b068fc378daa952ba7f163c4a11628f55a4df523b3ef84604051612d5f9190612f9d565b60405180910390a35050505050565b600e54600b81905550600f54600c81905550601054600d81905550565b5f805f6064600b5485612d9e9190613438565b612da891906134a6565b90505f612dbe8286612dcd90919063ffffffff16565b90508082935093505050915091565b5f8183612dda91906139db565b905092915050565b5f81519050919050565b5f82825260208201905092915050565b5f5b83811015612e19578082015181840152602081019050612dfe565b5f8484015250505050565b5f601f19601f8301169050919050565b5f612e3e82612de2565b612e488185612dec565b9350612e58818560208601612dfc565b612e6181612e24565b840191505092915050565b5f6020820190508181035f830152612e848184612e34565b905092915050565b5f80fd5b5f73ffffffffffffffffffffffffffffffffffffffff82169050919050565b5f612eb982612e90565b9050919050565b612ec981612eaf565b8114612ed3575f80fd5b50565b5f81359050612ee481612ec0565b92915050565b5f819050919050565b612efc81612eea565b8114612f06575f80fd5b50565b5f81359050612f1781612ef3565b92915050565b5f8060408385031215612f3357612f32612e8c565b5b5f612f4085828601612ed6565b9250506020612f5185828601612f09565b9150509250929050565b5f8115159050919050565b612f6f81612f5b565b82525050565b5f602082019050612f885f830184612f66565b92915050565b612f9781612eea565b82525050565b5f602082019050612fb05f830184612f8e565b92915050565b5f60208284031215612fcb57612fca612e8c565b5b5f612fd884828501612ed6565b91505092915050565b5f819050919050565b5f613004612fff612ffa84612e90565b612fe1565b612e90565b9050919050565b5f61301582612fea565b9050919050565b5f6130268261300b565b9050919050565b6130368161301c565b82525050565b5f60208201905061304f5f83018461302d565b92915050565b5f6020828403121561306a57613069612e8c565b5b5f61307784828501612f09565b91505092915050565b5f805f6060848603121561309757613096612e8c565b5b5f6130a486828701612ed6565b93505060206130b586828701612ed6565b92505060406130c686828701612f09565b9150509250925092565b5f60ff82169050919050565b6130e5816130d0565b82525050565b5f6020820190506130fe5f8301846130dc565b92915050565b61310d81612eaf565b82525050565b5f6020820190506131265f830184613104565b92915050565b5f61313682612e90565b9050919050565b6131468161312c565b8114613150575f80fd5b50565b5f813590506131618161313d565b92915050565b5f6020828403121561317c5761317b612e8c565b5b5f61318984828501613153565b91505092915050565b61319b8161312c565b82525050565b5f6020820190506131b45f830184613192565b92915050565b6131c3816130d0565b81146131cd575f80fd5b50565b5f813590506131de816131ba565b92915050565b5f602082840312156131f9576131f8612e8c565b5b5f613206848285016131d0565b91505092915050565b5f806040838503121561322557613224612e8c565b5b5f61323285828601612f09565b925050602061324385828601612f09565b9150509250929050565b61325681612f5b565b8114613260575f80fd5b50565b5f813590506132718161324d565b92915050565b5f6020828403121561328c5761328b612e8c565b5b5f61329984828501613263565b91505092915050565b5f80604083850312156132b8576132b7612e8c565b5b5f6132c585828601612ed6565b92505060206132d685828601612ed6565b9150509250929050565b7f4e487b71000000000000000000000000000000000000000000000000000000005f52602260045260245ffd5b5f600282049050600182168061332457607f821691505b602082108103613337576133366132e0565b5b50919050565b7f4f776e61626c653a2063616c6c6572206973206e6f7420746865206f776e65725f82015250565b5f613371602083612dec565b915061337c8261333d565b602082019050919050565b5f6020820190508181035f83015261339e81613365565b9050919050565b5f815190506133b381612ec0565b92915050565b5f602082840312156133ce576133cd612e8c565b5b5f6133db848285016133a5565b91505092915050565b5f6040820190506133f75f830185613104565b6134046020830184613104565b9392505050565b7f4e487b71000000000000000000000000000000000000000000000000000000005f52601160045260245ffd5b5f61344282612eea565b915061344d83612eea565b925082820261345b81612eea565b915082820484148315176134725761347161340b565b5b5092915050565b7f4e487b71000000000000000000000000000000000000000000000000000000005f52601260045260245ffd5b5f6134b082612eea565b91506134bb83612eea565b9250826134cb576134ca613479565b5b828204905092915050565b5f6134e082612eea565b91506134eb83612eea565b92508282019050808211156135035761350261340b565b5b92915050565b7f46656520697320746f6f206869676821000000000000000000000000000000005f82015250565b5f61353d601083612dec565b915061354882613509565b602082019050919050565b5f6020820190508181035f83015261356a81613531565b9050919050565b7f43757272656e746c792070726f63657373696e672c20747279206c617465722e5f82015250565b5f6135a5602083612dec565b91506135b082613571565b602082019050919050565b5f6020820190508181035f8301526135d281613599565b9050919050565b7f4f776e61626c653a206e6577206f776e657220697320746865207a65726f20615f8201527f6464726573730000000000000000000000000000000000000000000000000000602082015250565b5f613633602683612dec565b915061363e826135d9565b604082019050919050565b5f6020820190508181035f83015261366081613627565b9050919050565b7f4552523a207a65726f20616464726573730000000000000000000000000000005f82015250565b5f61369b601183612dec565b91506136a682613667565b602082019050919050565b5f6020820190508181035f8301526136c88161368f565b9050919050565b7f596f752061726520747279696e6720746f2062757920746f6f206d616e7920745f8201527f6f6b656e732e20596f752068617665207265616368656420746865206c696d6960208201527f7420666f72206f6e652077616c6c65742e000000000000000000000000000000604082015250565b5f61374f605183612dec565b915061375a826136cf565b606082019050919050565b5f6020820190508181035f83015261377c81613743565b9050919050565b7f596f752061726520747279696e6720746f2062757920564e4320636f696e20745f8201527f68616e20746865206d6178207472616e73616374696f6e206c696d69742e0000602082015250565b5f6137dd603e83612dec565b91506137e882613783565b604082019050919050565b5f6020820190508181035f83015261380a816137d1565b9050919050565b5f61381b826130d0565b915060ff820361382e5761382d61340b565b5b600182019050919050565b7f4e487b71000000000000000000000000000000000000000000000000000000005f52604160045260245ffd5b7f4e487b71000000000000000000000000000000000000000000000000000000005f52603260045260245ffd5b5f819050919050565b5f6138b66138b16138ac84613893565b612fe1565b612eea565b9050919050565b6138c68161389c565b82525050565b5f81519050919050565b5f82825260208201905092915050565b5f819050602082019050919050565b6138fe81612eaf565b82525050565b5f61390f83836138f5565b60208301905092915050565b5f602082019050919050565b5f613931826138cc565b61393b81856138d6565b9350613946836138e6565b805f5b8381101561397657815161395d8882613904565b97506139688361391b565b925050600181019050613949565b5085935050505092915050565b5f60a0820190506139965f830188612f8e565b6139a360208301876138bd565b81810360408301526139b58186613927565b90506139c46060830185613104565b6139d16080830184612f8e565b9695505050505050565b5f6139e582612eea565b91506139f083612eea565b9250828203905081811115613a0857613a0761340b565b5b9291505056fe45524332303a207472616e7366657220616d6f756e74206578636565647320616c6c6f77616e636545524332303a2064656372656173656420616c6c6f77616e63652062656c6f77207a65726fa2646970667358221220e002b18f6cfd5afda4ead54f8ed8ee068a4c3b86c83e03bd2c3e4b3730bf43d164736f6c63430008150033",
  "immutableReferences": {},
  "source": "// SPDX-License-Identifier: Unlicensed\n\npragma solidity ^0.8.7;\n\n\ninterface IERC20 {\n    \n    function totalSupply() external view returns (uint256);\n    function balanceOf(address account) external view returns (uint256);\n    function transfer(address recipient, uint256 amount) external returns (bool);\n    function allowance(address owner, address spender) external view returns (uint256);\n    function approve(address spender, uint256 amount) external returns (bool);\n    function transferFrom(address sender, address recipient, uint256 amount) external returns (bool);\n    event Transfer(address indexed from, address indexed to, uint256 value);\n    event Approval(address indexed owner, address indexed spender, uint256 value);\n}\n\nlibrary SafeMath {\n    \n\n    function add(uint256 a, uint256 b) internal pure returns (uint256) {\n        return a + b;\n    }\n\n    function sub(uint256 a, uint256 b) internal pure returns (uint256) {\n        return a - b;\n    }\n\n    function mul(uint256 a, uint256 b) internal pure returns (uint256) {\n        return a * b;\n    }\n    \n    function div(uint256 a, uint256 b) internal pure returns (uint256) {\n        return a / b;\n    }\n\n    function sub(uint256 a, uint256 b, string memory errorMessage) internal pure returns (uint256) {\n        unchecked {\n            require(b <= a, errorMessage);\n            return a - b;\n        }\n    }\n    \n    function div(uint256 a, uint256 b, string memory errorMessage) internal pure returns (uint256) {\n        unchecked {\n            require(b > 0, errorMessage);\n            return a / b;\n        }\n    }\n    \n}\n\n\nabstract contract Context {\n    function _msgSender() internal view virtual returns (address) {\n        return msg.sender;\n    }\n\n    function _msgData() internal view virtual returns (bytes calldata) {\n        this; \n        return msg.data;\n    }\n}\n\nlibrary Address {\n    \n    function isContract(address account) internal view returns (bool) {\n        uint256 size;\n        assembly { size := extcodesize(account) }\n        return size > 0;\n    }\n\n    function sendValue(address payable recipient, uint256 amount) internal {\n        require(address(this).balance >= amount, \"Address: insufficient balance\");\n        (bool success, ) = recipient.call{ value: amount }(\"\");\n        require(success, \"Address: unable to send value, recipient may have reverted\");\n    }\n    \n    function functionCall(address target, bytes memory data) internal returns (bytes memory) {\n      return functionCall(target, data, \"Address: low-level call failed\");\n    }\n    \n    function functionCall(address target, bytes memory data, string memory errorMessage) internal returns (bytes memory) {\n        return functionCallWithValue(target, data, 0, errorMessage);\n    }\n    \n    function functionCallWithValue(address target, bytes memory data, uint256 value) internal returns (bytes memory) {\n        return functionCallWithValue(target, data, value, \"Address: low-level call with value failed\");\n    }\n    \n    function functionCallWithValue(address target, bytes memory data, uint256 value, string memory errorMessage) internal returns (bytes memory) {\n        require(address(this).balance >= value, \"Address: insufficient balance for call\");\n        require(isContract(target), \"Address: call to non-contract\");\n        (bool success, bytes memory returndata) = target.call{ value: value }(data);\n        return _verifyCallResult(success, returndata, errorMessage);\n    }\n    \n    function functionStaticCall(address target, bytes memory data) internal view returns (bytes memory) {\n        return functionStaticCall(target, data, \"Address: low-level static call failed\");\n    }\n    \n    function functionStaticCall(address target, bytes memory data, string memory errorMessage) internal view returns (bytes memory) {\n        require(isContract(target), \"Address: static call to non-contract\");\n        (bool success, bytes memory returndata) = target.staticcall(data);\n        return _verifyCallResult(success, returndata, errorMessage);\n    }\n\n\n    function functionDelegateCall(address target, bytes memory data) internal returns (bytes memory) {\n        return functionDelegateCall(target, data, \"Address: low-level delegate call failed\");\n    }\n    \n    function functionDelegateCall(address target, bytes memory data, string memory errorMessage) internal returns (bytes memory) {\n        require(isContract(target), \"Address: delegate call to non-contract\");\n        (bool success, bytes memory returndata) = target.delegatecall(data);\n        return _verifyCallResult(success, returndata, errorMessage);\n    }\n\n    function _verifyCallResult(bool success, bytes memory returndata, string memory errorMessage) private pure returns(bytes memory) {\n        if (success) {\n            return returndata;\n        } else {\n            if (returndata.length > 0) {\n                 assembly {\n                    let returndata_size := mload(returndata)\n                    revert(add(32, returndata), returndata_size)\n                }\n            } else {\n                revert(errorMessage);\n            }\n        }\n    }\n}\n\nabstract contract Ownable is Context {\n    address private _owner;\n\n\n    event OwnershipTransferred(address indexed previousOwner, address indexed newOwner);\n    constructor () {\n        _owner = 0xb5af6Ec45aaFDDEcd0cCa7C1faB72919ACBd2341;\n        emit OwnershipTransferred(address(0), _owner);\n    }\n\n    function owner() public view virtual returns (address) {\n        return _owner;\n    }\n\n    modifier onlyOwner() {\n        require(owner() == _msgSender(), \"Ownable: caller is not the owner\");\n        _;\n    }\n\n    function renounceOwnership() public virtual onlyOwner {\n        emit OwnershipTransferred(_owner, address(0));\n        _owner = address(0);\n    }\n\n    function transferOwnership(address newOwner) public virtual onlyOwner {\n        require(newOwner != address(0), \"Ownable: new owner is the zero address\");\n        emit OwnershipTransferred(_owner, newOwner);\n        _owner = newOwner;\n    }\n}\n\ninterface IUniswapV2Factory {\n    event PairCreated(address indexed token0, address indexed token1, address pair, uint);\n    function feeTo() external view returns (address);\n    function feeToSetter() external view returns (address);\n    function getPair(address tokenA, address tokenB) external view returns (address pair);\n    function allPairs(uint) external view returns (address pair);\n    function allPairsLength() external view returns (uint);\n    function createPair(address tokenA, address tokenB) external returns (address pair);\n    function setFeeTo(address) external;\n    function setFeeToSetter(address) external;\n}\n\ninterface IUniswapV2Pair {\n    event Approval(address indexed owner, address indexed spender, uint value);\n    event Transfer(address indexed from, address indexed to, uint value);\n    function name() external pure returns (string memory);\n    function symbol() external pure returns (string memory);\n    function decimals() external pure returns (uint8);\n    function totalSupply() external view returns (uint);\n    function balanceOf(address owner) external view returns (uint);\n    function allowance(address owner, address spender) external view returns (uint);\n    function approve(address spender, uint value) external returns (bool);\n    function transfer(address to, uint value) external returns (bool);\n    function transferFrom(address from, address to, uint value) external returns (bool);\n    function DOMAIN_SEPARATOR() external view returns (bytes32);\n    function PERMIT_TYPEHASH() external pure returns (bytes32);\n    function nonces(address owner) external view returns (uint);\n    function permit(address owner, address spender, uint value, uint deadline, uint8 v, bytes32 r, bytes32 s) external;\n    event Burn(address indexed sender, uint amount0, uint amount1, address indexed to);\n    event Swap(\n        address indexed sender,\n        uint amount0In,\n        uint amount1In,\n        uint amount0Out,\n        uint amount1Out,\n        address indexed to\n    );\n    event Sync(uint112 reserve0, uint112 reserve1);\n    function MINIMUM_LIQUIDITY() external pure returns (uint);\n    function factory() external view returns (address);\n    function token0() external view returns (address);\n    function token1() external view returns (address);\n    function getReserves() external view returns (uint112 reserve0, uint112 reserve1, uint32 blockTimestampLast);\n    function price0CumulativeLast() external view returns (uint);\n    function price1CumulativeLast() external view returns (uint);\n    function kLast() external view returns (uint);\n    function burn(address to) external returns (uint amount0, uint amount1);\n    function swap(uint amount0Out, uint amount1Out, address to, bytes calldata data) external;\n    function skim(address to) external;\n    function sync() external;\n    function initialize(address, address) external;\n}\n\ninterface IUniswapV2Router01 {\n    function factory() external pure returns (address);\n    function WETH() external pure returns (address);\n    function addLiquidity(\n        address tokenA,\n        address tokenB,\n        uint amountADesired,\n        uint amountBDesired,\n        uint amountAMin,\n        uint amountBMin,\n        address to,\n        uint deadline\n    ) external returns (uint amountA, uint amountB, uint liquidity);\n    function addLiquidityETH(\n        address token,\n        uint amountTokenDesired,\n        uint amountTokenMin,\n        uint amountETHMin,\n        address to,\n        uint deadline\n    ) external payable returns (uint amountToken, uint amountETH, uint liquidity);\n    function removeLiquidity(\n        address tokenA,\n        address tokenB,\n        uint liquidity,\n        uint amountAMin,\n        uint amountBMin,\n        address to,\n        uint deadline\n    ) external returns (uint amountA, uint amountB);\n    function removeLiquidityETH(\n        address token,\n        uint liquidity,\n        uint amountTokenMin,\n        uint amountETHMin,\n        address to,\n        uint deadline\n    ) external returns (uint amountToken, uint amountETH);\n    function removeLiquidityWithPermit(\n        address tokenA,\n        address tokenB,\n        uint liquidity,\n        uint amountAMin,\n        uint amountBMin,\n        address to,\n        uint deadline,\n        bool approveMax, uint8 v, bytes32 r, bytes32 s\n    ) external returns (uint amountA, uint amountB);\n    function removeLiquidityETHWithPermit(\n        address token,\n        uint liquidity,\n        uint amountTokenMin,\n        uint amountETHMin,\n        address to,\n        uint deadline,\n        bool approveMax, uint8 v, bytes32 r, bytes32 s\n    ) external returns (uint amountToken, uint amountETH);\n    function swapExactTokensForTokens(\n        uint amountIn,\n        uint amountOutMin,\n        address[] calldata path,\n        address to,\n        uint deadline\n    ) external returns (uint[] memory amounts);\n    function swapTokensForExactTokens(\n        uint amountOut,\n        uint amountInMax,\n        address[] calldata path,\n        address to,\n        uint deadline\n    ) external returns (uint[] memory amounts);\n    function swapExactETHForTokens(uint amountOutMin, address[] calldata path, address to, uint deadline)\n        external\n        payable\n        returns (uint[] memory amounts);\n    function swapTokensForExactETH(uint amountOut, uint amountInMax, address[] calldata path, address to, uint deadline)\n        external\n        returns (uint[] memory amounts);\n    function swapExactTokensForETH(uint amountIn, uint amountOutMin, address[] calldata path, address to, uint deadline)\n        external\n        returns (uint[] memory amounts);\n    function swapETHForExactTokens(uint amountOut, address[] calldata path, address to, uint deadline)\n        external\n        payable\n        returns (uint[] memory amounts);\n\n    function quote(uint amountA, uint reserveA, uint reserveB) external pure returns (uint amountB);\n    function getAmountOut(uint amountIn, uint reserveIn, uint reserveOut) external pure returns (uint amountOut);\n    function getAmountIn(uint amountOut, uint reserveIn, uint reserveOut) external pure returns (uint amountIn);\n    function getAmountsOut(uint amountIn, address[] calldata path) external view returns (uint[] memory amounts);\n    function getAmountsIn(uint amountOut, address[] calldata path) external view returns (uint[] memory amounts);\n}\n\ninterface IUniswapV2Router02 is IUniswapV2Router01 {\n    function removeLiquidityETHSupportingFeeOnTransferTokens(\n        address token,\n        uint liquidity,\n        uint amountTokenMin,\n        uint amountETHMin,\n        address to,\n        uint deadline\n    ) external returns (uint amountETH);\n    function removeLiquidityETHWithPermitSupportingFeeOnTransferTokens(\n        address token,\n        uint liquidity,\n        uint amountTokenMin,\n        uint amountETHMin,\n        address to,\n        uint deadline,\n        bool approveMax, uint8 v, bytes32 r, bytes32 s\n    ) external returns (uint amountETH);\n\n    function swapExactTokensForTokensSupportingFeeOnTransferTokens(\n        uint amountIn,\n        uint amountOutMin,\n        address[] calldata path,\n        address to,\n        uint deadline\n    ) external;\n    function swapExactETHForTokensSupportingFeeOnTransferTokens(\n        uint amountOutMin,\n        address[] calldata path,\n        address to,\n        uint deadline\n    ) external payable;\n    function swapExactTokensForETHSupportingFeeOnTransferTokens(\n        uint amountIn,\n        uint amountOutMin,\n        address[] calldata path,\n        address to,\n        uint deadline\n    ) external;\n}\n\n\ncontract testcontract is Context, IERC20, Ownable { \n    using SafeMath for uint256;\n    using Address for address;\n\n\n    // \n    mapping (address => uint256) private _tOwned;\n    mapping (address => mapping (address => uint256)) private _allowances;\n    mapping (address => bool) public _ExcludeFromTax; \n\n    /*\n\n    VanaChain Native Creator\n\n    */\n    string public _name = \"TestContract\"; \n    string public _symbol = \"TCC\";  \n    uint8 public _decimals = 18;\n    uint256 private _tTotal = 200000000 * 10**18;\n    uint256 private _tFeeTotal;\n    uint8 private txCount = 0;\n    uint8 private swapTrigger = 3; \n    uint256 public maxPossibleFee = 70; \n    uint256 private _TotalFee = 30;\n    uint256 public TaxBuyCoin_ = 15;\n    uint256 public _sellFee = 15;\n    uint256 private _previousTotalFee = _TotalFee; \n    uint256 private _previousBuyFee = TaxBuyCoin_; \n    uint256 private _previousSellFee = _sellFee; \n    uint256 public maxWalletCoin_ = _tTotal.mul(1).div(100);\n    uint256 private _previousMaxWalletToken = maxWalletCoin_;\n    uint256 public maxTxCoin_ = _tTotal.mul(1).div(100); \n    uint256 private _previousMaxTxAmount = maxTxCoin_;\n    address payable public Address_creator = payable(0xb5af6Ec45aaFDDEcd0cCa7C1faB72919ACBd2341);\n    address payable public BurnAddress_ = payable(0x000000000000000000000000000000000000dEaD); \n    IUniswapV2Router02 public uniswapV2Router;\n    address public uniswapV2Pair;\n    bool public inSwapAndLiquify;\n    bool public swapAndLiquifyEnabled = true;\n    \n    event SwapAndLiquifyEnabledUpdated(bool enabled);\n    event SwapAndLiquify(\n        uint256 tokensSwapped,\n        uint256 ethReceived,\n        uint256 tokensIntoLiqudity\n        \n    );\n    \n\n    modifier lockTheSwap {\n        inSwapAndLiquify = true;\n        _;\n        inSwapAndLiquify = false;\n    }\n\n\n    \n    constructor () {\n        _tOwned[owner()] = _tTotal;\n        \n        IUniswapV2Router02 _uniswapV2Router = IUniswapV2Router02(0x20DD97c68AfB5D44A28AB41081035cd500aC3AcC); \n        \n        \n        // Create pair address for PancakeSwap\n        uniswapV2Pair = IUniswapV2Factory(_uniswapV2Router.factory())\n            .createPair(address(this), _uniswapV2Router.WETH());\n        uniswapV2Router = _uniswapV2Router;\n        _ExcludeFromTax[owner()] = true;\n        _ExcludeFromTax[address(this)] = true;\n        _ExcludeFromTax[Address_creator] = true;\n        \n        emit Transfer(address(0), owner(), _tTotal);\n    }\n\n\n    function name() public view returns (string memory) {\n        return _name;\n    }\n\n    function symbol() public view returns (string memory) {\n        return _symbol;\n    }\n\n    function decimals() public view returns (uint8) {\n        return _decimals;\n    }\n\n    function totalSupply() public view override returns (uint256) {\n        return _tTotal;\n    }\n\n    function balanceOf(address account) public view override returns (uint256) {\n        return _tOwned[account];\n    }\n\n    function transfer(address recipient, uint256 amount) public override returns (bool) {\n        _transfer(_msgSender(), recipient, amount);\n        return true;\n    }\n\n    function allowance(address owner, address spender) public view override returns (uint256) {\n        return _allowances[owner][spender];\n    }\n\n    function approve(address spender, uint256 amount) public override returns (bool) {\n        _approve(_msgSender(), spender, amount);\n        return true;\n    }\n\n    function transferFrom(address sender, address recipient, uint256 amount) public override returns (bool) {\n        _transfer(sender, recipient, amount);\n        _approve(sender, _msgSender(), _allowances[sender][_msgSender()].sub(amount, \"ERC20: transfer amount exceeds allowance\"));\n        return true;\n    }\n\n    function increaseAllowance(address spender, uint256 addedValue) public virtual returns (bool) {\n        _approve(_msgSender(), spender, _allowances[_msgSender()][spender].add(addedValue));\n        return true;\n    }\n\n    function decreaseAllowance(address spender, uint256 subtractedValue) public virtual returns (bool) {\n        _approve(_msgSender(), spender, _allowances[_msgSender()][spender].sub(subtractedValue, \"ERC20: decreased allowance below zero\"));\n        return true;\n    }\n\n\n\n    function excludeTax_(address account) public onlyOwner {\n        _ExcludeFromTax[account] = true;\n    }\n    \n    // Set a wallet address so that it has to pay transaction fees\n    function includeTax_(address account) public onlyOwner {\n        _ExcludeFromTax[account] = false;\n    }\n\n\n    \n\n    function _taxSet(uint256 _taxBuy, uint256 _taxSell) external onlyOwner() {\n\n        require((_taxBuy + _taxSell) <= maxPossibleFee, \"Fee is too high!\");\n        _sellFee = _taxSell;\n        TaxBuyCoin_ = _taxBuy;\n\n    }\n\n    function WalletUpdate_(address payable wallet) public onlyOwner() {\n        Address_creator = wallet;\n        _ExcludeFromTax[Address_creator] = true;\n    }\n\n\n \n    function set_Swap_And_Liquify_Enabled(bool true_or_false) public onlyOwner {\n        swapAndLiquifyEnabled = true_or_false;\n        emit SwapAndLiquifyEnabledUpdated(true_or_false);\n    }\n\n    function set_Number_Of_Transactions_Before_Liquify_Trigger(uint8 number_of_transactions) public onlyOwner {\n        swapTrigger = number_of_transactions;\n    }\n    \n\n    receive() external payable {}\n\n\n    bool public noTaxTransfer_ = false;\n\n\n    function noFee_Set(bool true_or_false) external onlyOwner {\n        noTaxTransfer_ = true_or_false;\n    }\n\n\n    function SetMax_buy(uint256 maxTxPercent_x100) external onlyOwner() {\n        maxTxCoin_ = _tTotal*maxTxPercent_x100/10000;\n    }    \n    \n     function setMax_Wallet(uint256 maxWallPercent_x100) external onlyOwner() {\n        maxWalletCoin_ = _tTotal*maxWallPercent_x100/10000;\n    }\n\n    function removeAllFee() private {\n        if(_TotalFee == 0 && TaxBuyCoin_ == 0 && _sellFee == 0) return;\n\n\n        _previousBuyFee = TaxBuyCoin_; \n        _previousSellFee = _sellFee; \n        _previousTotalFee = _TotalFee;\n        TaxBuyCoin_ = 0;\n        _sellFee = 0;\n        _TotalFee = 0;\n\n    }\n    \n    function restoreAllFee() private {\n    \n    _TotalFee = _previousTotalFee;\n    TaxBuyCoin_ = _previousBuyFee; \n    _sellFee = _previousSellFee; \n\n    }\n\n\n    function _approve(address owner, address spender, uint256 amount) private {\n\n        require(owner != address(0) && spender != address(0), \"ERR: zero address\");\n        _allowances[owner][spender] = amount;\n        emit Approval(owner, spender, amount);\n\n    }\n\n    function _transfer(\n        address from,\n        address to,\n        uint256 amount\n    ) private {\n        \n\n\n        if (to != owner() &&\n            to != Address_creator &&\n            to != address(this) &&\n            to != uniswapV2Pair &&\n            to != BurnAddress_ &&\n            from != owner()){\n            uint256 heldTokens = balanceOf(to);\n            require((heldTokens + amount) <= maxWalletCoin_,\"You are trying to buy too many tokens. You have reached the limit for one wallet.\");}\n\n\n\n        if (from != owner() && to != owner())\n            require(amount <= maxTxCoin_, \"You are trying to buy VNC coin than the max transaction limit.\");\n\n\n\n\n\n        if(\n            txCount >= swapTrigger && \n            !inSwapAndLiquify &&\n            from != uniswapV2Pair &&\n            swapAndLiquifyEnabled \n            )\n        {  \n            \n            txCount = 0;\n            uint256 contractTokenBalance = balanceOf(address(this));\n            if(contractTokenBalance > maxTxCoin_) {contractTokenBalance = maxTxCoin_;}\n            if(contractTokenBalance > 0){\n            swapAndLiquify(contractTokenBalance);\n        }\n        }\n\n        \n        bool takeFee = true;\n         \n        if(_ExcludeFromTax[from] || _ExcludeFromTax[to] || (noTaxTransfer_ && from != uniswapV2Pair && to != uniswapV2Pair)){\n            takeFee = false;\n        } else if (from == uniswapV2Pair){_TotalFee = TaxBuyCoin_;} else if (to == uniswapV2Pair){_TotalFee = _sellFee;}\n        \n        _tokenTransfer(from,to,amount,takeFee);\n    }\n\n\n    function sendToWallet(address payable wallet, uint256 amount) private {\n            wallet.transfer(amount);\n        }\n\n\n    function swapAndLiquify(uint256 contractTokenBalance) private lockTheSwap {\n        \n        swapTokensForBNB(contractTokenBalance);\n        uint256 contractBNB = address(this).balance;\n        sendToWallet(Address_creator,contractBNB);\n    }\n\n\n    function processTokens_ (uint256 percent_To_Process) public onlyOwner {\n        require(!inSwapAndLiquify, \"Currently processing, try later.\"); \n        if (percent_To_Process > 100){percent_To_Process == 100;}\n        uint256 tokensOnContract = balanceOf(address(this));\n        uint256 sendTokens = tokensOnContract*percent_To_Process/100;\n        swapAndLiquify(sendTokens);\n    }\n\n\n    function swapTokensForBNB(uint256 tokenAmount) private {\n\n        address[] memory path = new address[](2);\n        path[0] = address(this);\n        path[1] = uniswapV2Router.WETH();\n        _approve(address(this), address(uniswapV2Router), tokenAmount);\n        uniswapV2Router.swapExactTokensForETHSupportingFeeOnTransferTokens(\n            tokenAmount,\n            0, \n            path,\n            address(this),\n            block.timestamp\n        );\n    }\n\n\n    function set_New_Router_and_Make_Pair(address newRouter) public onlyOwner() {\n        IUniswapV2Router02 _newPCSRouter = IUniswapV2Router02(newRouter);\n        uniswapV2Pair = IUniswapV2Factory(_newPCSRouter.factory()).createPair(address(this), _newPCSRouter.WETH());\n        uniswapV2Router = _newPCSRouter;\n    }\n   \n    function set_New_Router_Address(address newRouter) public onlyOwner() {\n        IUniswapV2Router02 _newPCSRouter = IUniswapV2Router02(newRouter);\n        uniswapV2Router = _newPCSRouter;\n    }\n    \n\n    function set_New_Pair_Address(address newPair) public onlyOwner() {\n        uniswapV2Pair = newPair;\n    }\n\n\n    function _tokenTransfer(address sender, address recipient, uint256 amount,bool takeFee) private {\n        \n        \n        if(!takeFee){\n            removeAllFee();\n            } else {\n                txCount++;\n            }\n            _transferTokens(sender, recipient, amount);\n        \n        if(!takeFee)\n            restoreAllFee();\n    }\n\n\n    function _transferTokens(address sender, address recipient, uint256 tAmount) private {\n        (uint256 tTransferAmount, uint256 tDev) = _getValues(tAmount);\n        _tOwned[sender] = _tOwned[sender].sub(tAmount);\n        _tOwned[recipient] = _tOwned[recipient].add(tTransferAmount);\n        _tOwned[address(this)] = _tOwned[address(this)].add(tDev);   \n        emit Transfer(sender, recipient, tTransferAmount);\n    }\n\n\n    function _getValues(uint256 tAmount) private view returns (uint256, uint256) {\n        uint256 tDev = tAmount*_TotalFee/100;\n        uint256 tTransferAmount = tAmount.sub(tDev);\n        return (tTransferAmount, tDev);\n    }\n\n}",
  "sourcePath": "/home/ekawibisono/moo-dex-testnet/testcontract/contracts/testcontract.sol",
  "compiler": {
    "name": "solc",
    "version": "0.8.21+commit.d9974bed.Emscripten.clang"
  },
  "schemaVersion": "3.4.16",
  "updatedAt": "2024-03-08T03:30:19.072Z",
  "devdoc": {
    "kind": "dev",
    "methods": {},
    "version": 1
  },
  "userdoc": {
    "kind": "user",
    "methods": {},
    "version": 1
  }
}